:020000040800F2
:1000000000000824AD2B0008C1260008C326000804
:10001000C5260008C7260008C92600080000000001
:10002000000000000000000000000000CB260008D7
:10003000CD26000800000000CF260008D1260008C9
:10004000012C0008012C0008012C0008012C0008DC
:10005000012C0008012C0008012C0008012C0008CC
:10006000012C0008012C0008012C0008D9260008EA
:10007000E9260008F9260008012C0008012C0008D8
:10008000012C0008012C0008012C0008012C00089C
:10009000012C0008012C0008012C0008012C00088C
:1000A000012C0008012C0008012C0008012C00087C
:1000B000012C000809270008012C0008012C000869
:1000C000012C0008012C0008012C0008012C00085C
:1000D000012C000819270008012C0008012C000839
:1000E000012C0008012C000800000000012C000871
:1000F000012C0008012C0008012C0008012C00082C
:10010000012C0008012C0008012C0008012C00081B
:10011000012C0008012C0008012C0008012C00080B
:10012000012C0008012C0008012C0008012C0008FB
:10013000012C0008012C0008012C0008012C0008EB
:1001400000000000000000000000000000000000AF
:10015000012C0008012C0008012C0008012C0008CB
:10016000012C0008012C0008012C0008012C0008BB
:10017000012C0008012C0008012C000800000000E0
:10018000012C0008012C0008012C0008012C00089B
:10019000012C0008012C0008012C0008012C00088B
:1001A000012C0008012C0008012C0008012C00087B
:1001B000012C0008012C0008012C0008012C00086B
:1001C000012C0008012C0008012C0008012C00085B
:1001D000012C0008012C0008012C0008012C00084B
:1001E000012C0008012C0008012C0008012C00083B
:1001F000012C0008012C0008012C0008012C00082B
:10020000012C0008012C0008012C0008012C00081A
:10021000012C0008012C0008012C0008012C00080A
:10022000012C0008012C0008012C0008000000002F
:10023000012C0008012C000800000000012C00081F
:10024000012C0008012C0008012C0008012C0008DA
:10025000012C0008012C0008012C0008012C0008CA
:10026000012C0008012C0008012C0008012C0008BA
:10027000012C0008012C0008012C000800000000DF
:10028000012C0008012C0008012C000800000000CF
:0802900000000000012C000831
:1002C00010B5054C237833B9044B13B10448AFF390
:1002D00000800123237010BDC0090024000000002D
:1002E000C808010808B5034B1BB103490348AFF325
:1002F000008008BD00000000C4090024C8080108EF
:1003000081F0004102E000BF83F0004330B54FEAC6
:1003100041044FEA430594EA050F08BF90EA020F33
:100320001FBF54EA000C55EA020C7FEA645C7FEAC6
:10033000655C00F0E2804FEA5454D4EB5555B8BFE9
:100340006D420CDD2C4480EA020281EA030382EA5A
:10035000000083EA010180EA020281EA0303362DEC
:1003600088BF30BD11F0004F4FEA01314FF4801CBF
:100370004CEA113102D0404261EB410113F0004FD1
:100380004FEA03334CEA133302D0524263EB430388
:1003900094EA050F00F0A780A4F10104D5F1200E26
:1003A0000DDB02FA0EFC22FA05F2801841F1000181
:1003B00003FA0EF2801843FA05F359410EE0A5F155
:1003C00020050EF1200E012A03FA0EFC28BF4CF086
:1003D000020C43FA05F3C01851EBE37101F000453C
:1003E00007D54FF0000EDCF1000C7EEB00006EEB49
:1003F0000101B1F5801F1BD3B1F5001F0CD34908D3
:100400005FEA30004FEA3C0C04F101044FEA445229
:1004100012F5800F80F09A80BCF1004F08BF5FEAB0
:10042000500C50F1000041EB045141EA050130BD90
:100430005FEA4C0C404141EB0101013C28BFB1F5A2
:10044000801FE9D291F0000F04BF01460020B1FAED
:1004500081F308BF2033A3F10B03B3F120020CDAC0
:100460000C3208DD02F1140CC2F10C0201FA0CF09E
:1004700021FA02F10CE002F11402D8BFC2F1200C03
:1004800001FA02F120FA0CFCDCBF41EA0C019040B9
:10049000E41AA2BF01EB0451294330BD6FEA040402
:1004A0001F3C1CDA0C340EDC04F11404C4F12002ED
:1004B00020FA04F001FA02F340EA030021FA04F3FF
:1004C00045EA030130BDC4F10C04C4F1200220FA56
:1004D00002F001FA04F340EA0300294630BD21FA94
:1004E00004F0294630BD94F0000F83F4801306BF5A
:1004F00081F480110134013D4EE77FEA645C18BF4E
:100500007FEA655C29D094EA050F08BF90EA020FE4
:1005100005D054EA000C04BF1946104630BD91EADC
:10052000030F1EBF0021002030BD5FEA545C05D1DF
:100530004000494128BF41F0004130BD14F580041E
:100540003CBF01F5801130BD01F0004545F0FE4192
:1005500041F470014FF0000030BD7FEA645C1ABFC7
:10056000194610467FEA655C1CBF0B46024650EAFE
:10057000013406BF52EA033591EA030F41F400212A
:1005800030BD00BF90F0000F04BF0021704730B5B0
:100590004FF4806404F132044FF000054FF0000185
:1005A00050E700BF90F0000F04BF0021704730B546
:1005B0004FF4806404F1320410F0004548BF40421B
:1005C0004FF000013EE700BF42004FEAE2014FEA70
:1005D00031014FEA02701FBF12F07F4393F07F4F4B
:1005E00081F06051704732F07F4208BF704793F04E
:1005F0007F4F04BF41F40021704730B54FF4607461
:1006000001F0004521F000411CE700BF50EA010263
:1006100008BF704730B54FF000050AE050EA01020C
:1006200008BF704730B511F0004502D5404261EB7C
:1006300041014FF4806404F132045FEA915C3FF4BD
:10064000D8AE4FF003025FEADC0C18BF03325FEA5A
:10065000DC0C18BF033202EBDC02C2F1200300FA0B
:1006600003FC20FA02F001FA03FE40EA0E0021FA30
:1006700002F11444BDE600BF70B54FF0FF0C4CF41E
:10068000E06C1CEA11541DBF1CEA135594EA0C0FD0
:1006900095EA0C0F00F0DEF82C4481EA030621EA0B
:1006A0004C5123EA4C5350EA013518BF52EA033546
:1006B00041F4801143F4801338D0A0FB02CE4FF0F8
:1006C0000005E1FB02E506F00042E0FB03E54FF028
:1006D0000006E1FB03569CF0000F18BF4EF0010E20
:1006E000A4F1FF04B6F5007F64F5407404D25FEA1C
:1006F0004E0E6D4146EB060642EAC62141EA5551CF
:100700004FEAC52040EA5E504FEACE2EB4F1FD0C10
:1007100088BFBCF5E06F1ED8BEF1004F08BF5FEA8E
:10072000500E50F1000041EB045170BD06F0004640
:1007300046EA010140EA020081EA0301B4EB5C04ED
:10074000C2BFD4EB0C0541EA045170BD41F48011E5
:100750004FF0000E013C00F3AB8014F1360FDEBF0A
:10076000002001F0004170BDC4F10004203C35DAE6
:100770000C341BDC04F11404C4F1200500FA05F369
:1007800020FA04F001FA05F240EA020001F000420A
:1007900021F0004110EBD37021FA04F642EB060180
:1007A0005EEA430E08BF20EAD37070BDC4F10C04AA
:1007B000C4F1200500FA04F320FA05F001FA04F26E
:1007C00040EA020001F0004110EBD37041F100015A
:1007D0005EEA430E08BF20EAD37070BDC4F1200565
:1007E00000FA05F24EEA020E20FA04F301FA05F2CD
:1007F00043EA020321FA04F001F0004121FA04F275
:1008000020EA020000EBD3705EEA430E08BF20EA44
:10081000D37070BD94F0000F0FD101F0004640007E
:1008200041EB010111F4801F08BF013CF7D041EA00
:10083000060195F0000F18BF704703F00046520004
:1008400043EB030313F4801F08BF013DF7D043EAD5
:100850000603704794EA0C0F0CEA135518BF95EA8B
:100860000C0F0CD050EA410618BF52EA4306D1D112
:1008700081EA030101F000414FF0000070BD50EA31
:10088000410606BF1046194652EA430619D094EABB
:100890000C0F02D150EA013613D195EA0C0F05D1A5
:1008A00052EA03361CBF104619460AD181EA0301F9
:1008B00001F0004141F0FE4141F470014FF00000B1
:1008C00070BD41F0FE4141F4780170BD70B54FF04C
:1008D000FF0C4CF4E06C1CEA11541DBF1CEA1355CC
:1008E00094EA0C0F95EA0C0F00F0A7F8A4EB0504AE
:1008F00081EA030E52EA03354FEA013100F08880A5
:100900004FEA03334FF0805545EA131343EA12636D
:100910004FEA022245EA111545EA10654FEA002622
:100920000EF000419D4208BF964244F1FD0404F5DB
:10093000407402D25B084FEA3202B61A65EB030537
:100940005B084FEA32024FF480104FF4002CB6EBF4
:10095000020E75EB030E22BFB61A754640EA0C0074
:100960005B084FEA3202B6EB020E75EB030E22BFB4
:10097000B61A754640EA5C005B084FEA3202B6EBF5
:10098000020E75EB030E22BFB61A754640EA9C00B4
:100990005B084FEA3202B6EB020E75EB030E22BF84
:1009A000B61A754640EADC0055EA060E18D04FEA42
:1009B000051545EA16754FEA06164FEAC30343EAE2
:1009C00052734FEAC2025FEA1C1CC0D111F4801FAF
:1009D0000BD141EA00014FF000004FF0004CB6E7A8
:1009E00011F4801F04BF01430020B4F1FD0C88BF47
:1009F000BCF5E06F3FF6AFAEB5EB030C04BFB6EB52
:100A0000020C5FEA500C50F1000041EB045170BD44
:100A10000EF0004E4EEA113114EB5C04C2BFD4EB71
:100A20000C0541EA045170BD41F480114FF0000EF5
:100A3000013C90E645EA060E8DE60CEA135594EA71
:100A40000C0F08BF95EA0C0F3FF43BAF94EA0C0F74
:100A50000AD150EA01347FF434AF95EA0C0F7FF4E9
:100A600025AF104619462CE795EA0C0F06D152EA3D
:100A700003353FF4FDAE1046194622E750EA410621
:100A800018BF52EA43067FF4C5AE50EA41047FF432
:100A90000DAF52EA43057FF4EBAE12E74A0011D2E4
:100AA00012F5001211D20DD56FF47873B3EB6252C8
:100AB0000ED44FEAC12343F0004343EA505323FAD4
:100AC00002F070474FF00000704750EA013002D149
:100AD0004FF0FF3070474FF0000070474FEA41027F
:100AE000B2F1E04324BFB3F5001CDCF1FE5C0DD98C
:100AF00001F0004C4FEAC0024CEA5070B2F1004FD6
:100B000040EB830008BF20F00100704711F0804FD8
:100B100021D113F13872BCBF01F00040704741F49D
:100B200080114FEA5252C2F11802C2F1200C10FAA1
:100B30000CF320FA02F018BF40F001004FEAC12385
:100B40004FEAD32303FA0CFC40EA0C0023FA02F329
:100B50004FEA4303CCE77FEA625307D150EA0133FF
:100B60001EBF4FF0FE4040F44000704701F00040CF
:100B700040F0FE4040F40000704700BF53B94AB94E
:100B8000002908BF00281CBF4FF0FF314FF0FF3095
:100B900000F074B9ADF1080C6DE904CE00F006F870
:100BA000DDF804E0DDE9022304B070472DE9F047E9
:100BB000089D04468E46002B4DD18A42944669D941
:100BC000B2FA82F252B101FA02F3C2F1200120FA24
:100BD00001F10CFA02FC41EA030E94404FEA1C4872
:100BE000210CBEFBF8F61FFA8CF708FB16E341EA6E
:100BF000034306FB07F199420AD91CEB030306F1F4
:100C0000FF3080F01F81994240F21C81023E634414
:100C10005B1AA4B2B3FBF8F008FB103344EA0344B8
:100C200000FB07F7A7420AD91CEB040400F1FF33CD
:100C300080F00A81A74240F207816444023840EA0A
:100C40000640E41B00261DB1D4400023C5E9004343
:100C50003146BDE8F0878B4209D9002D00F0EF80C6
:100C60000026C5E9000130463146BDE8F087B3FAF9
:100C700083F6002E4AD18B4202D3824200F2F980E1
:100C8000841A61EB030301209E46002DE0D0C5E9E4
:100C9000004EDDE702B9FFDEB2FA82F2002A40F030
:100CA0009280A1EB0C014FEA1C471FFA8CFE012633
:100CB000200CB1FBF7F307FB131140EA01410EFBD7
:100CC00003F0884208D91CEB010103F1FF3802D27E
:100CD000884200F2CB804346091AA4B2B1FBF7F078
:100CE00007FB101144EA01440EFB00FEA64508D99B
:100CF0001CEB040400F1FF3102D2A64500F2BB80D8
:100D00000846A4EB0E0440EA03409CE7C6F1200726
:100D1000B34022FA07FC4CEA030C20FA07F401FA6C
:100D200006F31C43F9404FEA1C4900FA06F3B1FBF5
:100D3000F9F8200C1FFA8CFE09FB181140EA01415A
:100D400008FB0EF0884202FA06F20BD91CEB0101F7
:100D500008F1FF3A80F08880884240F28580A8F14F
:100D600002086144091AA4B2B1FBF9F009FB1011A1
:100D700044EA014100FB0EFE8E4508D91CEB01013F
:100D800000F1FF346CD28E456AD90238614440EAE2
:100D90000840A0FB0294A1EB0E01A142C846A64662
:100DA00056D353D05DB1B3EB080261EB0E0101FAEB
:100DB00007F722FA06F3F1401F43C5E90071002648
:100DC0003146BDE8F087C2F12003D8400CFA02FC9E
:100DD00021FA03F3914001434FEA1C471FFA8CFEAE
:100DE000B3FBF7F007FB10360B0C43EA064300FB9E
:100DF0000EF69E4204FA02F408D91CEB030300F13C
:100E0000FF382FD29E422DD9023863449B1B89B2F2
:100E1000B3FBF7F607FB163341EA034106FB0EF37B
:100E20008B4208D91CEB010106F1FF3816D28B4228
:100E300014D9023E6144C91A46EA004638E72E46F4
:100E4000284605E70646E3E61846F8E64B45A9D2EC
:100E5000B9EB020864EB0C0E0138A3E74646EAE75B
:100E6000204694E74046D1E7D0467BE7023B614409
:100E700032E7304609E76444023842E7704700BF72
:100E800001F0FF01102A2BDB10F0070F08D010F83B
:100E9000013B013A8B422DD010F0070F42B3F6D13F
:100EA000F0B441EA012141EA014122F007047FF058
:100EB00000070023F0E80256083C85EA010586EAAF
:100EC000010685FA47F5A3FA87F586FA47F6A5FAEB
:100ED00087F68EB9EED1F0BC01F0FF0102F00702F7
:100EE00032B110F8013B013A83EA010313B1F8D1A2
:100EF0000020704701387047002D06BF3546033883
:100F0000073815F0010F07D1013015F4807F02BFBB
:100F1000013015F4C03F0130F0BC0138704700BF0C
:100F2000844641EA000313F003036DD1403A41D3F4
:100F300051F8043B40F8043B51F8043B40F8043BB3
:100F400051F8043B40F8043B51F8043B40F8043BA3
:100F500051F8043B40F8043B51F8043B40F8043B93
:100F600051F8043B40F8043B51F8043B40F8043B83
:100F700051F8043B40F8043B51F8043B40F8043B73
:100F800051F8043B40F8043B51F8043B40F8043B63
:100F900051F8043B40F8043B51F8043B40F8043B53
:100FA00051F8043B40F8043B51F8043B40F8043B43
:100FB000403ABDD2303211D351F8043B40F8043BE3
:100FC00051F8043B40F8043B51F8043B40F8043B23
:100FD00051F8043B40F8043B103AEDD20C3205D3F3
:100FE00051F8043B40F8043B043AF9D2043208D0EB
:100FF000D2071CBF11F8013B00F8013B01D30B885D
:1010000003806046704700BF082A13D38B078DD03A
:1010100010F003038AD0C3F10403D21ADB071CBF0C
:1010200011F8013B00F8013B80D331F8023B20F876
:10103000023B7BE7043AD9D3013A11F8013B00F8AF
:10104000013BF9D20B7803704B7843708B78837037
:101050006046704700000000000000000000000033
:101060000000000000000000000000000000000080
:101070000000000000000000000000000000000070
:1010800090F800F06DE9024520F007016FF0000CC8
:1010900010F0070491F820F040F049804FF0000470
:1010A0006FF00700D1E9002391F840F000F108004B
:1010B00082FA4CF2A4FA8CF283FA4CF3A2FA8CF383
:1010C0004BBBD1E9022382FA4CF200F10800A4FAEA
:1010D0008CF283FA4CF3A2FA8CF3E3B9D1E904233E
:1010E00082FA4CF200F10800A4FA8CF283FA4CF375
:1010F000A2FA8CF37BB9D1E9062301F1200182FA2F
:101100004CF200F10800A4FA8CF283FA4CF3A2FA34
:101110008CF3002BC6D0002A04BF04301A4612BA42
:10112000B2FA82F2FDE8024500EBD2007047D1E945
:10113000002304F00305C4F100004FEAC50514F0D4
:10114000040F91F840F00CFA05F562EA05021CBFA5
:1011500063EA050362464FF00004A9E74FF0FF3C45
:1011600006E000BF4FF0010C02E000BF4FF0010CA1
:101170004DF804CD4FEA410C7FEA6C5C4FEA430C1A
:1011800018BF7FEA6C5C1BD001B050EA410C0CBF69
:1011900052EA430C91EA030F02BF90EA020F0020CB
:1011A000704710F1000F91EA030F58BF994208BF32
:1011B00090422CBFD8176FEAE37040F001007047EF
:1011C0004FEA410C7FEA6C5C02D150EA013C07D146
:1011D0004FEA430C7FEA6C5CD6D152EA033CD3D091
:1011E0005DF8040B704700BF8446104662468C468B
:1011F0001946634600E000BF01B5FFF7B7FF0028BE
:1012000048BF10F1000F01BD4DF808EDFFF7F4FFE6
:101210000CBF012000205DF808FB00BF4DF808ED71
:10122000FFF7EAFF34BF012000205DF808FB00BF94
:101230004DF808EDFFF7E0FF94BF012000205DF8B6
:1012400008FB00BF4DF808EDFFF7CEFF94BF01206B
:1012500000205DF808FB00BF4DF808EDFFF7C4FF64
:1012600034BF012000205DF808FB00BF4FEA410CAD
:101270007FEA6C5C02D150EA013C0AD14FEA430C90
:101280007FEA6C5C02D152EA033C02D14FF00000CD
:1012900070474FF0010070474FEA410212F500120B
:1012A00015D211D56FF47873B3EB625212D94FEAAD
:1012B000C12343F0004343EA505311F0004F23FA97
:1012C00002F018BF404270474FF00000704750EAEC
:1012D000013005D111F0004008BF6FF000407047A9
:1012E0004FF00000704700BF2DE9F04704460D465F
:1012F0004E080022114605E0D21A5B089342FBD942
:101300001A4401316B1E8B420DD9914209D204EB74
:10131000C200076804EBC103D3F800C0C0F800C0E6
:101320001F603346EAE72846FFF72CF941EC100B23
:101330000FF03EF851EC100B2FA3D3E90023FFF779
:10134000C5FAFFF7ABFB81464FF000084FF0010EE6
:1013500045E00EFB07F301EB43030EEB030205FB35
:1013600001FA04EBC202D2ED005A214E06EB8A0CC0
:101370009CED007A65EE876A92ED015A1D4800EBFC
:101380008A00D0ED007A25EE276A36EE866A27EECF
:10139000057A65EEA77A77EE677A04EBC303D3ED9F
:1013A000006A93ED017A76EE265AC3ED005A77EE85
:1013B000875AC3ED015A76EEC66AC2ED006A77EE2F
:1013C000677AC2ED017A01318E45C2D80137AF424A
:1013D00001D20021F8E74FEA4E0E08F10108C84596
:1013E00002D26D080027F2E7BDE8F087AFF3008076
:1013F000DC090024DC090124EF39FAFE422EE63F25
:1014000008B5CB0000EBC101D1ED017AF5EEC07A51
:10141000F1EE10FA06DB91ED007AB5EEC07AF1EE4E
:1014200010FA17DAF5EEC07AF1EE10FA07DBC218FF
:1014300092ED007AB5EEC07AF1EE10FA28D9F5EE09
:10144000C07AF1EE10FA41D9F5EEC07AF1EE10FA59
:1014500062D908BDC7EE877A17EE900AFFF7B4F895
:1014600041EC100B0EF0F8FD51EC100B3EA3D3E94C
:101470000023FFF72BFA00223D4BFFF7FDF8002277
:101480000023FEF743FFFFF729FB00EE100AE0E719
:10149000C7EE877A17EE900AFFF796F841EC100B2B
:1014A0000EF0DAFD51EC100B2FA3D3E90023FFF768
:1014B0000DFA00222E4BFFF7DFF800222C4BFEF72F
:1014C00025FFFFF70BFB00EE100AC2E7C21892EDF2
:1014D000007AB5EEC07AF1EE10FAB5D8C7EE877A89
:1014E00017EE900AFFF770F841EC100B0EF0B4FD08
:1014F00051EC100B1CA3D3E90023FFF7E7F90022FE
:101500001B4BFFF7B9F80022194BFEF7FFFEFFF760
:10151000E5FA00EE100A9CE7184490ED007AB5EE6B
:10152000C07AF1EE10FA94DBC7EE877A17EE900AD4
:10153000FFF74AF841EC100B0EF08EFD51EC100B4A
:1015400009A3D3E90023FFF7C1F90022084BFFF7F5
:1015500093F80022074BFEF7D9FEFFF7BFFA00EE23
:10156000100A76E7AFF3008000000060FB2109401D
:10157000008066400080764030B52DED028B85B04E
:1015800005460C46406A6968002928DB03AB01AABE
:10159000491008F04DFC606A6168002921DB02AB4C
:1015A0006A46491008F044FC0399286AFFF728FFAF
:1015B000B0EE408A0299206AFFF722FF38EE400A17
:1015C000DFED0F7AB4EEE70AF1EE10FA0BDDDFED96
:1015D0000D7A30EE670A05B0BDEC028B30BD0131EB
:1015E000D4E70131DBE7DFED087AB4EEE70AF1EE8C
:1015F00010FAF0D5DFED037A30EE270AEBE700BFF3
:10160000000034430000B443000034C3F8B52DEDAE
:10161000028B05460C4616460421204608F0CEFCF7
:101620004FF0000E9FED1F8A2DE00133A34210DA28
:101630009A0050F82370002FF7D12A44D2ED007A97
:10164000F4EEC77AF1EE10FAEFDD1946B0EE677AE4
:10165000EBE7B1F1FF3F1ED0A1F10A0300E0013337
:1016600001F10A0C9C450ADBDA43D20FA342A8BF62
:101670000022002AF3D0012240F82320EFE70EF1E8
:10168000010EB0EE478AB64505DA00234FF0FF3170
:101690009FED047ACAE708F00BFDB0EE480ABDECF6
:1016A000028BF8BD0000000070B50546482008F028
:1016B000F7FC0446B0B14560EE00304608F0F0FC9F
:1016C0002062A80008F0ECFC6062304608F0E8FCFC
:1016D000206338B101230022A9B204F1340008F0DC
:1016E0000FFC08B9204670BD206A08F0E1FC606A72
:1016F00008F0DEFC204608F0DBFC0024F2E70000E6
:1017000010B52DED028B044601224168406AFFF7B7
:101710007DFFB0EE408A02226168606AFFF776FFC3
:10172000B5EE400AF1EE10FA06D0C8EE007AC4ED2C
:10173000077ABDEC028B10BDDFED017AF7E700BF41
:101740000000000010B582B00446436A00221A600F
:10175000406A6168002924DB01AB04F114024910DE
:1017600008F066FBDDED017AF8EE676AD4ED017AE8
:10177000B8EEE77AC6EE877A94ED007A67EE877A5C
:10178000C4ED047AF6EE006A27EE267AF4EEC77A04
:10179000F1EE10FA03DD77EEC77AC4ED047A02B0F9
:1017A00010BD0131D8E708B500F118024168806822
:1017B00008F06EFA08BD10B584B0044601AB03AA68
:1017C0004168806808F034FB6B4602AA6168A06833
:1017D00008F0C6FADDED037A9DED027A77EEC77A5E
:1017E000C4ED057A04B010BD70B5044600230EE0C8
:1017F000A068226AD90002EBC30200EB83000068F4
:101800001060226A04310A440021116001336268C9
:101810009A42EDDC00230DE0A168226B02EBC302CB
:1018200001EB830109681160226B02EBC302002106
:101830005160013361689942EEDC206BFFF754FD83
:10184000002311E0226BD80002EBC301226A02EBF5
:10185000C30209681160216B01EBC301226A0430E5
:10186000024449681160013362689A42EADC00254B
:1018700014E0236B03EBC50393ED000A20EE000A8E
:10188000D3ED017A67EEA77A666A06EB850630EE3D
:10189000270A0EF0CFFD86ED000A01356368AB42E2
:1018A000E7DC2046FFF74EFF2046FFF729FF2046E2
:1018B000FFF779FF2046FFF77EFF70BD00B58BB0C4
:1018C00000230793089309930093019302930393D2
:1018D0000493059306932248224A0260436008223B
:1018E0008260C36004220261037543750122826134
:1018F00003774FF4B46141624FF480618162032148
:10190000C1620363436380F83830C26301F07AFF39
:10191000E8B90023079307A9114802F0F9F8C8B9FC
:10192000114B0093062301930323029340F2FF73AC
:10193000039304230493002305938DF8193069461B
:10194000074801F039FA40B90BB05DF804FB00F02C
:10195000DCFBDEE700F0D9FBE2E700F0D6FBF3E7C3
:10196000E0090224002002401000C01000B589B038
:101970000023019302930393049305930693079323
:101980001D481E4A0260436008228260C360042230
:101990000261037543750122826103774FF4B461DC
:1019A00041624FF4806181620321C162036343633A
:1019B00080F83830C26301F025FFB0B9104B0193B5
:1019C000062302930323039340F2FF73049304233B
:1019D0000593002306938DF81D3001A9064801F0F8
:1019E000EBF928B909B05DF804FB00F08EFBE5E7E0
:1019F00000F08BFBF6E700BF440A022400210240FE
:101A00000002B02510B58AB0044600230593069362
:101A100007930893099303684C4A934204D04C4AB5
:101A200093424AD00AB010BD4A4A1368013313608A
:101A3000012B31D0484BD3F8E02042F00402C3F828
:101A4000E020D3F8E03003F004030293029B10235C
:101A500005930323069305A9404803F065FD40481C
:101A6000404B03600923436000238360C3604FF44D
:101A7000806202614FF4006242614FF40052826161
:101A80004FF48072C2610362436202F0BBFB88B90B
:101A9000334BE3649C63C5E72F4BD3F8D82042F067
:101AA0002002C3F8D820D3F8D83003F020030193E4
:101AB000019BBFE700F029FBEAE7264A13680133E0
:101AC0001360012B31D0244BD3F8E02042F0020206
:101AD000C3F8E020D3F8E03003F002030493049B42
:101AE000012305930323069305A91F4803F01CFD5A
:101AF0001E481F4B03600A23436000238360C360BA
:101B00004FF4806202614FF4006242614FF4005270
:101B100082614FF48072C2610362436202F072FB21
:101B200088B9124BE3649C637CE70B4BD3F8D82055
:101B300042F02002C3F8D820D3F8D83003F02003B5
:101B40000393039BBFE700F0E0FAEAE700200240BE
:101B500000210240DC090224004402580008025817
:101B6000A80A02242800024000040258200B022484
:101B70001000024000B583B0134BD3F8D82042F0D8
:101B80000102C3F8D820D3F8D83003F00103019341
:101B9000019B002211460B2002F07EF80B2002F080
:101BA000B1F8002211460C2002F076F80C2002F069
:101BB000A9F8002211460D2002F06EF80D2002F067
:101BC000A1F803B05DF804FB0044025830B58BB0B7
:101BD0000024059406940794089409942D4BD3F897
:101BE000E02042F01002C3F8E020D3F8E02002F039
:101BF00010020092009AD3F8E02042F08002C3F86D
:101C0000E020D3F8E02002F080020192019AD3F89C
:101C1000E02042F00402C3F8E020D3F8E02002F014
:101C200004020292029AD3F8E02042F00202C3F8C2
:101C3000E020D3F8E02002F002020392039AD3F8E6
:101C4000E02042F00102C3F8E020D3F8E03003F0D6
:101C500001030493049B104D22464FF47041284623
:101C600003F072FD142305934FF488130693079431
:101C700005A9284603F058FC4FF47043059301234F
:101C800006930794089405A9284603F04DFC0BB071
:101C900030BD00BF00440258001002582DE9F8433F
:101CA00081460F4615469846BDF82060013B013A33
:101CB0009BB292B200F0F4F808E0304600F0D0F8A1
:101CC0000134A4B2AC42F8D30137BFB2474501D2C8
:101CD0004C46F7E7BDE8F88310B50B4614460246BC
:101CE00000F0DEF8204600F0BBF810BD2DE9F04F03
:101CF00087B0814603911E46BDF8404002949DF88E
:101D000044B09DF848704FEA5B0A4FEA1B1303FB8F
:101D10000BF40494203AD2B2059200EB5B0292B22B
:101D20000BEB01039BB2013B013A9BB292B200F074
:101D3000B7F84D464FF00008CDF804B0B34633E095
:101D4000234B059A03EB021313F808603BE002985B
:101D500000F086F80AE046FA04F313F0010F14D1FC
:101D60000135ADB2A5EB0903534514D00134E4B2FB
:101D7000072C15D8002FEED146FA04F313F0010F0B
:101D8000E5D0584600F06CF8F0E75A46039928462B
:101D9000FFF7A2FFE4E7039B01339BB203934D4699
:101DA00008F101081FFA88F8049B98450DD2019BA1
:101DB000102BC5D0019B202B07D1064B059A03EBB6
:101DC000821313F808600024D2E707B0BDE8F08F53
:101DD000E0080108D00E01082DE9F04784B0044660
:101DE000884615461F46BDF830A09DF834609DF822
:101DF00038900DE0CDF808900196CDF800A03B4654
:101E000041462046FFF772FF04EB5604A4B20135A9
:101E10002A78002AEED104B0BDE8F08710B582B070
:101E20008DF807000A4C00224FF40051204603F0C1
:101E30008BFC642301220DF10701064806F0B4F87B
:101E400001224FF40051204603F07EFC02B010BD89
:101E500000100258D00C052408B5FFF7DFFF08BDBD
:101E600010B50446000AFFF7D9FFE0B2FFF7D6FF2E
:101E700010BD000038B50446084D00224FF48041E3
:101E8000284603F061FC2046FFF7C8FF01224FF40B
:101E90008041284603F058FC38BD00BF00100258AE
:101EA000F8B507460D4616461C462A20FFF7E2FF06
:101EB000781C80B2FFF7D4FF701C80B2FFF7D0FF10
:101EC0002B20FFF7D7FFA81C80B2FFF7C9FFA01C8B
:101ED00080B2FFF7C5FF2C20FFF7CCFFF8BD000054
:101EE00010B5704C00224FF40041204603F02CFC4A
:101EF000642000F0EFFE01224FF40041204603F081
:101F000023FC642000F0E6FE01224FF480512046BD
:101F100003F01AFC642000F0DDFE0120FFF7AAFFA9
:101F2000782000F0D7FE1120FFF7A4FF782000F002
:101F3000D1FE3620FFF79EFF7020FFF78DFF3A207D
:101F4000FFF798FF0520FFF787FFB220FFF792FF0A
:101F50000C20FFF781FF0C20FFF77EFF0020FFF72A
:101F60007BFF3320FFF778FF3320FFF775FFB720A3
:101F7000FFF780FF7220FFF76FFFBB20FFF77AFFAC
:101F80003D20FFF769FFC020FFF774FF2C20FFF70B
:101F900063FFC220FFF76EFF0120FFF75DFFC32044
:101FA000FFF768FF1920FFF757FFC420FFF762FF14
:101FB0002020FFF751FFC620FFF75CFF0F20FFF73F
:101FC0004BFFD020FFF756FFA420FFF745FFA120CD
:101FD000FFF742FFD620FFF74DFFA120FFF73CFFA0
:101FE000E020FFF747FFD020FFF736FF0420FFF780
:101FF00033FF0D20FFF730FF1120FFF72DFF1320D7
:10200000FFF72AFF2B20FFF727FF3F20FFF724FFD2
:102010005420FFF721FF4C20FFF71EFF1820FFF789
:102020001BFF0D20FFF718FF0B20FFF715FF1F20E8
:10203000FFF712FF2320FFF70FFFE120FFF71AFF42
:10204000D020FFF709FF0420FFF706FF0C20FFF761
:1020500003FF1120FFF700FF1320FFF7FDFE2C20E8
:10206000FFF7FAFE3F20FFF7F7FE4420FFF7F4FEEC
:102070005120FFF7F1FE2F20FFF7EEFE1F20FFF7A4
:10208000EBFE1F20FFF7E8FE2020FFF7E5FE2320F0
:10209000FFF7E2FE2120FFF7EDFE2920FFF7EAFE21
:1020A00010BD00BF0010025810B584B00024009489
:1020B00001940294039401F047FE01238DF800304F
:1020C0008DF8014001941F228DF8082087228DF899
:1020D00009208DF80A408DF80B408DF80C308DF8F2
:1020E0000D308DF80E408DF80F40684601F04AFE25
:1020F000042001F037FE04B010BD0000014B0122A6
:102100001A607047980B0524704772B6FEE700000E
:1021100000B59DB04C22002109A808F081FA2022C8
:10212000002101A808F07CFA022003F013FB002331
:102130000093264B9A6942F440429A619B6903F4EA
:1021400040430093224BDA6A42F00102DA62DB6A12
:1021500003F001030093009B1C4B9B6913F4005F89
:10216000FAD00223099301220C9240220D9212937D
:1021700000221392042114913C21159116930521FC
:10218000179118930C2319931A921B9209A803F024
:102190000BFBB8B93F23019303230293002303935E
:1021A000082304934023059306934FF4806207921B
:1021B000089304210DEB010003F04AFF20B91DB084
:1021C0005DF804FBFFF7A1FFFFF79FFF00480258EF
:1021D0000004005810B5B0B0C02422460021684663
:1021E00008F01EFA4FF400220023CDE90023042357
:1021F00002930A23039302230493059306930794FF
:1022000020230893684604F0BFF908B930B010BD28
:10221000FFF77BFF000000002DE9F04F2DED028B52
:1022200085B0FFF741FF00F015FDFFF771FFFFF7E5
:10223000D1FFFFF7CBFCFFF79DFCFFF797FB00F00A
:1022400097F9FFF73BFB00F009FC00F0A7FB00F05B
:1022500051FBC82000F03EFDFFF742FEAA4D40F2C0
:10226000FF720121284601F0FFFBA84C40F2FF72EB
:102270000121204601F0F8FBC82000F02BFDA44806
:1022800006F072F9A34806F0C7F94FF40052A249CC
:10229000284601F0EBF84FF40052A049204601F027
:1022A000E5F800200090F0234FF4A0720146FFF7FC
:1022B000F5FC4FF40050FFF7F7F905464FF40050D6
:1022C000FFF7F2F98046964B2B60036008E1934BD1
:1022D00033F8143007EE903AF8EE677A9FED918A62
:1022E000C7EE887A17EE900AFEF76EF984A3D3E959
:1022F0000023FEF7C1F9FEF7F1FBA6008A4B03EBC2
:1023000084031860844B33F8143007EE903AF8EEEB
:10231000677AC7EE887A17EE900AFEF755F978A328
:10232000D3E90023FEF7A8F9FEF7D8FB7F4B33442F
:1023300018600134B4F5005FC9DB7B4BAB607B4BAD
:10234000C8F80830002402942023019300944FF62B
:10235000FF73774A14211E20FFF73EFD2846FFF742
:1023600043FA4046FFF740FA41462846FFF704F992
:1023700010EE109A234608E06A6A02EB83021168A5
:102380006C4A02EB830211600133B3F5005FF3DBAB
:10239000002308E02A6A02EB83021168664A02EB16
:1023A000830211600133B3F5804FF3DB00242DE08D
:1023B0005D4B03EB840307EE904AB8EEE77ADFED5E
:1023C0005F7A87EE278A5B4A02EB8402D2F800B07C
:1023D0001868FEF7F9F806460F46DFF890A1584650
:1023E000FEF7F2F8CDE9020118EE100AFEF7ECF85C
:1023F000CDE9000132463B465149504608F080F98C
:10240000642251464F4806F0BBFC0134B4F5005F2E
:10241000CEDB2869FEF7D8F802460B464A4F4B49F7
:10242000384608F06DF900240294102601960094B5
:102430004FF6FF733A4632211E20FFF7CDFC686944
:10244000FEF7C2F802460B46414F4249384608F0B3
:1024500057F90294019600944FF6FF733A464621CD
:102460001E20FFF7B9FCA869FEF7AEF802460B463E
:10247000394F3A49384608F043F9029401960094DE
:102480004FF6FF733A465A211E20FFF7A5FC484637
:10249000FEF79AF802460B46314F3249384608F0AB
:1024A0002FF90294019600944FF6FF733A466E217D
:1024B0001E20FFF791FC4FF47A7000F00BFC2A4BC2
:1024C0001C60134806F050F84FF4005213490F48AF
:1024D00000F0CCFF4FF400520F490B4800F0C6FF4C
:1024E000214B1B68012BFBD1084801F097F80648E7
:1024F00001F094F8064806F07BF800241AE700BFC4
:102500006666666666660A40440A0224E00902249A
:10251000A80D05245C0D0524984B0224980B022479
:102520000050C34600F07F45988B0224980B03248B
:1025300090260108988B0424988B032400007A4489
:102540009C2601086C0E0524000C0524B026010809
:10255000340C0524C0260108680C0524CC2601088B
:102560009C0C0524D8260108980B05249C0B0524F7
:1025700008B51548154B03604FF4800343604FF4D2
:10258000003383600723C3600023036143614FF07E
:10259000806282614FF04052C26103624362836293
:1025A000C3624FF0804242638363C3630364436446
:1025B0008364C36403654365836505F02DFC00B93E
:1025C00008BDFFF7A2FDFBE7D00C05240038004052
:1025D00070B5BAB0044600213591369137913891E3
:1025E0003991C02204A808F01BF82268274B9A42B0
:1025F00001D03AB070BD4FF480520023CDE90423DE
:1026000004A803F0C1FF00283CD1214BD3F8E820F7
:1026100042F48042C3F8E820D3F8E82002F4804274
:102620000192019AD3F8E02042F00402C3F8E020BE
:10263000D3F8E02002F004020292029AD3F8E020DC
:1026400042F00202C3F8E020D3F8E03003F00203C6
:102650000393039B022535953695002437943894CF
:102660000526399635A90B4802F05EFF4FF48063CA
:102670003593369537943894399635A9064802F043
:1026800053FFB6E7FFF741FDBFE700BF003800404A
:1026900000440258000802580004025882B0074B58
:1026A000D3F8F42042F00202C3F8F420D3F8F43057
:1026B00003F002030193019B02B0704700440258EB
:1026C000FEE7FEE7FEE7FEE7FEE77047704770476C
:1026D00008B500F0EDFA08BD08B5024802F088FB25
:1026E00008BD00BF200B022408B5024802F080FBA1
:1026F00008BD00BFA80A022408B5024802F078FB12
:1027000008BD00BFF40D052408B5024805F0D1FF4F
:1027100008BD00BF5C0D052408B5024806F0F0FBBB
:1027200008BD00BF6C0E05240120704708B507F0F6
:102730008DFC162303604FF0FF3008BD08B54FF045
:10274000FF31FFF7F3FFFEE770B50C461646002594
:1027500006E0AFF30080214601F8010B01350C467D
:10276000B542F6DB304670BD70B50C461646002506
:1027700004E014F8010BAFF300800135B542F8DB3B
:10278000304670BD4FF0FF3070474FF400534B6040
:1027900000207047012070470020704710B50346A5
:1027A0000C4A0D490D48006840B10C4800680344CC
:1027B000521A934206D8094A136010BD0748084CC4
:1027C0000460F2E707F042FC0C2303604FF0FF3097
:1027D000F3E700BF0000082400040000580D0524A2
:1027E000500F0524314AD2F8883043F47003C2F800
:1027F00088302F4B1B6803F00F03062B06D82C4A9A
:10280000136823F00F0343F007031360294B1A6882
:1028100042F001021A6000221A611968264A0A4031
:102820001A60234B1B6813F0080F06D0204A136868
:1028300023F00F0343F0070313601E4B00229A613D
:10284000DA611A621D4999621D49D9621D491963ED
:102850005A639963DA6319645A64196821F4802110
:1028600019601A66184B1A68184B1340B3F1005FD1
:1028700003D2174B0122C3F808210E4BD3F8D430F2
:1028800013F4805F10D10B4BD3F8D42042F4805264
:10289000C3F8D4200F4A43F2D2011160D3F8D420F8
:1028A00022F48052C3F8D420704700BF00ED00E04E
:1028B00000200052004402587FEDF6EA00020202B6
:1028C0000000FF01800201010010005C0000FFFF1A
:1028D0000080005100400052054AD36843F00203D3
:1028E000D360034B5B6813F4005FFAD0704700BFFE
:1028F0000048025800B58FB000230A930B930C9345
:102900000D93079308930993009301930293039304
:102910000493059306931F481F4A026009224260F0
:102920008360EF22C26003618023836106F000F8B8
:1029300000BB4FF480530A930AA9164806F0ECF83E
:10294000D8B9144806F024F8D0B9002307930993A6
:1029500007A9104806F07CF9A8B90022009201925C
:102960000292049269460B4806F08CF870B90FB0D9
:102970005DF804FBFFF7C9FBDBE7FFF7C6FBE0E709
:10298000FFF7C3FBE1E7FFF7C0FBE6E7FFF7BDFB9F
:10299000EDE700BF5C0D05240004004000B585B0E4
:1029A00000230193029303930F48104A0260092207
:1029B00042608360EF23C3608023836105F0B8FF2A
:1029C00058B9202301930023039301A9064806F078
:1029D0003FF928B905B05DF804FBFFF796FBF0E777
:1029E000FFF793FBF6E700BFA80D05240010004099
:1029F00000B583B00368164A934205D0154A934246
:102A000018D003B05DF804FB134BD3F8E82042F074
:102A10000202C3F8E820D3F8E83003F00203009381
:102A2000009B002211461D2001F036F91D2001F007
:102A300069F9E6E7084BD3F8E82042F01002C3F842
:102A4000E820D3F8E83003F010030193019BD8E7A6
:102A500000040040001000400044025808B5174828
:102A6000174B03604FF4E133436000238360C3607E
:102A700003610C2242618361C3610362436283622A
:102A800007F041F870B900210C4807F0B7F860B9B9
:102A900000210A4807F0D7F850B9084807F08FF826
:102AA00048B908BDFFF731FBEDE7FFF72EFBEFE775
:102AB000FFF72BFBF1E7FFF728FBF2E76C0E05248D
:102AC0000010014030B5B9B0044600213391349173
:102AD000359136913791C02202A807F0A1FD2268F6
:102AE0002D4B9A4201D039B030BD01220023CDE9EF
:102AF000022302A803F048FD002847D1274BD3F852
:102B0000F02042F01002C3F8F020D3F8F02002F0D9
:102B100010020092009AD3F8E02042F00202C3F8BB
:102B2000E020D3F8E03003F002030193019B4FF45F
:102B3000404333930223349300253595369504237F
:102B4000379333A9164802F0EFFC1648164B036082
:102B50002A23436040238360C5604FF48063036190
:102B6000456185614FF48073C3610562456201F080
:102B700049FB70B90B4BE3679C630022114625208B
:102B800001F08AF8252001F0BDF8ACE7FFF7BDFAA7
:102B9000B4E7FFF7BAFAEDE700100140004402582D
:102BA00000040258F40D052440000240DFF838D03C
:102BB000FFF792FEFFF716FE0C480D490D4A002361
:102BC00002E0D458C4500433C4188C42F9D30A4AE2
:102BD0000A4C002301E013600432A242FBD307F049
:102BE0003BFAFFF719FB704700000824000000249F
:102BF000C00900247CB30108C00900244C0F05243F
:102C0000FEE70000104B1B780BB90120704710B590
:102C100004464FF47A70B0FBF3F30C4A1068B0FB33
:102C2000F3F001F07DF868B90F2C01D901200AE01A
:102C3000002221464FF0FF3001F02EF8044B1C60BB
:102C4000002000E0012010BD080000240000002446
:102C50000C00002410B5032001F00CF803F0FEF87E
:102C60000F498B69C3F303230E4AD35C03F01F03A0
:102C7000D8408B6903F00F03D35C03F01F0320FAE5
:102C800003F3094A1360094B18600F20FFF7BAFFDE
:102C900010B10124204610BD0446FFF7FFFCF9E700
:102CA00000440258E8260108040000240000002423
:102CB000034B1B78034A11680B441360704700BF35
:102CC00008000024000F0524014B1868704700BF5E
:102CD000000F052438B50446FFF7F6FF0546B4F1AA
:102CE000FF3F02D0044B1B781C44FFF7EDFF401B55
:102CF000A042FAD338BD00BF08000024014B186879
:102D0000000C70470010005C704708B5806BFFF73F
:102D1000FBFF08BD704708B50346806B426D12F09B
:102D2000500F30D1436D43F40073436503681A6854
:102D300012F0080F14D0DA6812F4406F20D1DB686B
:102D400013F4005F1CD1436D23F480734365436D1E
:102D500013F4805F14D1436D43F0010343650FE02A
:102D6000DB6813F0030F0BD1436D23F480734365CD
:102D7000436D13F4805F03D1436D43F0010343655A
:102D8000FFF7BCF908BD426D12F0100F04D1C26C00
:102D9000D26C18469047F5E7FFF7BCFFF2E708B59D
:102DA000806B436D43F040034365836D43F0040340
:102DB0008365FFF7AFFF08BDF0B583B00022019235
:102DC00090F85020012A00F052820346012280F838
:102DD00050200068826812F0040F09D05A6D42F04A
:102DE00020025A650120002283F8502003B0F0BD74
:102DF0000A68002A0ADBC2F31304002C4FD1C2F385
:102E0000846201249440C2692243C2611D684C68F7
:102E10003035220A920002F00C02A85804F01F0E6E
:102E20001F2404FA0EF420EA04000C68C4F3846C36
:102E30000CFA0EFC40EA0C00A8501C68A26812F0C4
:102E4000040200D00122A06810F0080000D0012088
:102E5000024330D01D68A86810F0010040F00382E2
:102E60000A68CE68D5F8C040C2F3130724EA070405
:102E700006F0180CA04E26FA0CFC02EA0C02C2F373
:102E800013022243C5F8C020CC689C4A944200F04B
:102E9000AE800A68002AC0F265810020A3E792FA9A
:102EA000A2F232B1B2FA82F202F01F02012494407F
:102EB000A9E72022F8E70F688D681434780E8000A7
:102EC00000F004002658C7F3045C072707FA0CF744
:102ED00026EA070605FA0CF53543255088480068B0
:102EE00000F07040B0F1805F0BD01C68E06810F01B
:102EF000100F39D14869E468C4F382046400A0402B
:102F000006E048691C68E468C4F382046400A040D9
:102F10000D69042D36D01F680E68603757F82540BC
:102F200004F0004406F0F8463043204347F82500FB
:102F300018680E694C7E012C1ED01546603050F882
:102F4000264024F000442C4340F826401D680C69BC
:102F5000087E012813D0286920F4F04004F01F04F3
:102F6000A24002432A6175E74869E468A40804F0B6
:102F700004046400A040CBE74FF00045DEE74FF4C7
:102F80000062E8E71868026E02F0F8420C68B2EBE3
:102F9000846F1DD01868426E02F0F8420C68B2EBE4
:102FA000846F1AD01868826E02F0F8420C68B2EB97
:102FB000846F17D01868C26E02F0F8420C68B2EB4A
:102FC000846F7FF447AFC26E22F00042C26641E7D1
:102FD000026E22F000420266DCE7426E22F00042FE
:102FE0004266DFE7826E22F000428266E2E71C68FA
:102FF000444A94420FD0444A944235D0C0F313025D
:10300000002A40F0A380800E012202FA00F0E2695B
:103010000243E2613DE70A683C4DAA424AD03C4D7A
:10302000AA4249D03B4DAA4248D03B4DAA4247D084
:1030300005F186651035AA4244D0384DAA4243D0E6
:1030400005F1042505F54015AA423FD005F1866536
:1030500005F50065AA423BD0314DAA423AD0314D28
:10306000AA42CBD13048C9E70A68284DAA4233D0DA
:10307000274DAA4232D0274DAA4231D0264DAA422E
:1030800030D005F186651035AA422DD0234DAA42D5
:103090002CD005F1042505F54015AA4228D005F1EC
:1030A000866505F50065AA4224D01E4DAA42A5D129
:1030B0001D48A3E70120A1E71C489FE71C489DE7A6
:1030C0001C489BE71C4899E71C4897E71C4895E774
:1030D0001C4893E71C4891E701208FE713488DE7D0
:1030E00013488BE7134889E7134887E7134885E7B8
:1030F000134883E7134881E7FFFF0F000000FF47F5
:103100000010005C00200240002102400200300458
:10311000040060080800900C1000C0100004002A91
:10312000000021430000844B0000B84F40002019EC
:103130008000501D000180210002B0250008302EC3
:1031400000106032002090360000524790FAA0F044
:1031500030B1B0FA80F202F01F020120904056E731
:103160002022F8E719684348434CA14218BF814226
:103170000CBF0120002021D1404EB56805F0E0775A
:10318000F0B13C48806810F0010000D001203A4CBA
:10319000A46814F0010400D0012420430CBF0120D6
:1031A0000020002859D03648824212D03548824249
:1031B00031D0354882423FD0002014E6334EDCE760
:1031C0003348806810F0010000D0012080F0010039
:1031D000E7E715F4000FE9D12D4A914201D0002014
:1031E00001E647F40002B16821F0E0710A43B260E1
:1031F000284A126892092849A1FB02129209013259
:103200005200019202E0019A013A0192019A002AC9
:10321000F9D10020E7E515F0807FCAD11C4A914220
:1032200001D00020DFE547F08072B16821F0E07145
:103230000A43B2600020D6E515F4800F15D1144A78
:10324000914201D00020CEE547F48002B16821F020
:10325000E0710A43B2600020C5E55A6D42F02002D9
:103260005A650120BFE50020BDE50020BBE5022036
:10327000BCE500BF002002400021024000230240C4
:10328000000084CB000052C70000B8CF0063025892
:103290000060025800000024632D3E0570B504460E
:1032A0000068836813F0040300D00123826812F0E1
:1032B000080200D00122134367D0C36813F0007FD7
:1032C00004D0A28A40F201139A424AD002290ED0B9
:1032D00023689A6812F0040F09D09A6812F0020F5E
:1032E00005D198682A4A024042F010029A600129EA
:1032F0000ED023689A6812F0080F09D09A6812F06D
:10330000020F05D19868224A024042F020029A60DA
:10331000022934D0032934D10C25FFF7D5FC064609
:1033200023689B682B422ED0FFF7CEFC831B052B16
:10333000F6D923689B682B42F2D0636D43F01003EB
:103340006365A36D43F00103A36501201EE0636D77
:1033500043F010036365A36D43F00103A3650120EF
:1033600014E00023026812F0400F04D1094A93428E
:10337000EDD80133F6E7402303600121A8E70825D3
:10338000CBE70425C9E7002000E0002070BD00BFA6
:10339000C0FFFF7FFFDB0C0038B503689A6812F0AE
:1033A000010F56D1044699682B4A114209D0436D4A
:1033B00043F010034365836D43F0010383650120EF
:1033C00048E09968254A0A4042F001029A60FFF7F6
:1033D0007BFC054623682249224A934218BF8B4250
:1033E0000DD102F50072926802F01F021D498B4256
:1033F00007D01946994207D032B100202AE01A4A74
:10340000F1E7A1F58071F5E723681A6812F0010F62
:103410001DD19A6812F0010F05D199680F4A0A4030
:1034200042F001029A60FFF74FFC401B0228EBD9E3
:1034300023681B6813F0010FE6D1636D43F010039E
:103440006365A36D43F00103A365012002E0002042
:1034500000E0002038BD00BF3F000080C0FFFF7FBC
:10346000002002400021024000630258F8B50446E3
:103470000E46174600683D4A3D4B984218BF9042A1
:103480001AD103F500739D6805F01F05806810F0E0
:10349000040F67D194F85030012B65D0012384F8D4
:1034A0005030052D18BF002D08D0092D06D000235F
:1034B00084F85030012056E02E4BE4E72046FFF719
:1034C0006BFF00284AD1626DA0F60273134043F4EB
:1034D000807363652368264A934239D01A46934223
:1034E00000D01DB9636D23F480136365636D13F41D
:1034F000805F30D0A36D23F00603A365E36C1E4A02
:10350000DA63E36C1D4A1A64E36C1D4ADA642368CB
:103510001C221A60002384F850302268536843F05C
:10352000100353602168E36ACA6822F00302134360
:10353000CB6021683B4632464031E06C01F034F804
:10354000226891680F4B0B4043F0040393600AE03C
:10355000A2F58072C3E70023A365CFE7002384F8B8
:10356000503000E00220F8BD0220FCE700200240BD
:103570000021024000630258172D00080B2D00089F
:103580009F2D0008C0FFFF7F38B50446026893688E
:1035900013F0020300D00123916811F0010F37D01E
:1035A000002B37D1936803F00D03012B09D0636D15
:1035B00043F010036365A36D43F00103A36501208D
:1035C00027E09168144B0B4043F00203936023689B
:1035D00003221A60FFF778FB054623689B6813F007
:1035E000010F13D0FFF770FB401B0228F5D92368A9
:1035F0009B6813F0010FF0D0636D43F01003636517
:10360000A36D43F00103A365012002E0002000E068
:10361000002038BD0020FCE7C0FFFF7F38B590F8E0
:103620005030012B37D00446012380F8503003215D
:10363000FFF734FE0546D8B92268D36823F00303A8
:10364000D360E06C90F83530DBB2022B15D02268E5
:10365000536823F010035360CDB92046FFF794FF61
:1036600005462DB9626D0D4B134043F001036365B0
:10367000002384F85030284638BD01F0E1F80546B3
:103680000028E4D0636D43F040036365DFE7204624
:10369000FFF77AFFE5E70225EDE700BFFEEEFFFF4B
:1036A00038B5044603684F494F4A934218BF8B42CE
:1036B00023D14E4B9B6813F4403F14BF01230023DA
:1036C0004BB302F00FFE05466368B3F5003F1CD014
:1036D000B3F5403F1DD0B3F5803F16D0FFF70EFB8A
:1036E00041F20303984258D8414B9D424FD922687A
:1036F000936843F48073936038BD3E4B9B6813F42A
:10370000403F14BF01230023DAE71B0CB5FBF3F5A0
:10371000E4E78508E2E74FF40020002103F080FF92
:1037200005466368B3F5101F2DD022D8B3F5E01F0E
:1037300027D004D9B3F5001FD0D14509CEE7B3F5A2
:10374000801F0DD006D9B3F5A01F09D0B3F5C01F57
:1037500006D0C3E7B3F5002F02D0B3F5402F04D154
:103760009B0C5B00B5FBF3F5B8E7B3F5802FF7D002
:10377000B4E7B3F5201F08D0B3F5301FAED1050A6A
:10378000ACE70509AAE78509A8E7C509A6E7226805
:10379000936823F480739360AEE7174B9D4205D87E
:1037A0002268936823F440739360A5E7134B9D420E
:1037B00007D82268936823F4407343F480739360BE
:1037C0009AE70F4B9D4207D82268936823F4407311
:1037D00043F4007393608FE72268936843F4407367
:1037E000936089E70020024000210240002302404C
:1037F000002D31010063025821BCBE0041787D01DB
:1038000081F0FA0230B583B000230193002800F064
:1038100010810446436DEBB123689A6812F0005F93
:1038200003D09968844A0A409A6023689A6812F023
:10383000805F1CD19968814A0A4042F080529A60A8
:103840007F4B1B689B097F4AA2FB03239B09013323
:10385000019309E0FEF7D6F80023A36584F8503001
:10386000DAE7019B013B0193019B002BF9D1226810
:10387000936813F0805F40F09C80636D43F0100309
:103880006365A36D43F00103A3650125936813F0FD
:10389000040300D00123616D11F0100F40F0C180CE
:1038A000002B40F0BE80636D23F4817343F002036C
:1038B0006365936813F0010F21D16349634B9A420A
:1038C00018BF8A420CBF0122002274D18B6813F00A
:1038D000010300D001235D49896811F0010100D086
:1038E00001210B430CBF0123002343B1002A6BD0FD
:1038F000574963688A6822F47C1213438B60FFF790
:10390000FDF941F20303984202D9A368102B5DD060
:10391000627D236B43EA4233A2681343227F43EA6A
:103920000243227F012A5CD0626A22B102F47872DB
:10393000A16A0A4313432168C868464A02401343F8
:10394000CB6021688B6813F0040300D001238A68E0
:1039500012F0080200D0012213431BD1227DE36A3A
:1039600043EA8232C8683C4B03401343CB6094F86F
:103970003830012B3AD02268136923F00103136118
:103980002268136923F07043616B0B431361204677
:10399000FFF786FEE368012B3AD02268136B23F011
:1039A0000F031363636D23F0030343F001036365A7
:1039B0003CE000256AE7294B9B6813F0010300D027
:1039C000012383F0010390E7254992E7617D226B93
:1039D00042EA41321343227F43EA024343F00C039D
:1039E0009FE7226A013A43EA42439DE72068026961
:1039F0001C4B1340E26B511E226C42EA0142616C87
:103A00000A43A16C0A43134343F001030361B7E780
:103A100021680B6B23F00F03A269013A13430B6378
:103A2000C0E7636D43F0100363650125284603B0CA
:103A300030BD0125FAE700BFC0FFFF5FC0FFFF6F89
:103A400000000024632D3E050020024000210240BA
:103A50000023024003C0F0FFFCBFFFFF00600258DC
:103A6000006302581EF800FC70B582B00023019379
:103A700090F85030012B42D004460D4616460123E3
:103A800080F85030FFF780FD00282FD1626D1D4B6C
:103A9000134043F002036365226891681A4B0B40A0
:103AA00005F4803506F0804635432B4343F0004350
:103AB000936023689B68002B06DB636D23F0030390
:103AC00043F00103636515E0019B01330193019A03
:103AD0000E4B9A42EDD3636D23F0120343F01003B3
:103AE0006365002384F85030012006E0636D43F0E5
:103AF00010036365002384F8503002B070BD0220CB
:103B0000FBE700BFFDEEFFFFC0FFFE3F00F8C3254F
:103B100090F85020012A00F0A18030B49AB00346FA
:103B2000012280F8502000221692179200684C4A19
:103B3000904242D000220192019A002A41D092681C
:103B400012F0040200D00122846814F0040F76D130
:103B5000002A74D1424C434A904218BFA04239D146
:103B600002F50072086800283FD0906820F44040B9
:103B70004C68204390601868394D3A4CA04218BFF9
:103B8000A84229D1A86810F0010000D00120354CCE
:103B9000A46814F0010400D0012420430CBF0120CC
:103BA0000020002856D094682F4820400C6889686F
:103BB000214308439060002046E002F580720192A4
:103BC000BAE75A6D42F020025A65002283F850206D
:103BD00001203CE0254AC5E72548806810F0010037
:103BE00000D0012080F00100DBE7916821F4404122
:103BF000916019681A4C1B48814218BFA14215D127
:103C0000A16811F0010100D001211648806810F070
:103C1000010000D0012001430CBF01210021D9B1D6
:103C2000906811490140916000200DE010498968B9
:103C300011F0010100D0012181F00101EFE75A6D7F
:103C400042F020025A650120002283F850201AB069
:103C500030BC70470020F7E70020F5E702207047EE
:103C60000020024000210240E0F0FFFF0063025804
:103C7000006002580649CB6823F4E0631B041B0C68
:103C8000000200F4E0600343024A1A43CA6070472E
:103C900000ED00E00000FA0500B5174BDB68C3F348
:103CA0000223C3F1070CBCF1040F28BF4FF0040C32
:103CB00003F1040EBEF1060F14D9033B4FF0FF3E93
:103CC0000EFA0CFC21EA0C0199400EFA03F322EAE9
:103CD00003031943002807DB0901C9B2074B195434
:103CE0005DF804FB0023E9E700F00F000901C9B209
:103CF000034B1954F4E700BF00ED00E000E400E0DE
:103D000014ED00E0002807DB00F01F02400901234A
:103D10009340024A42F82030704700BF00E100E0C3
:103D20000138B0F1807F0BD24FF0E0235861054A93
:103D3000F02182F823100020986107221A61704751
:103D40000120704700ED00E0BFF35F8F044B5A6A1B
:103D500022F480325A620022C3F89420704700BFD8
:103D600000ED00E040F00100054BC3F894005A6AF2
:103D700042F480325A62BFF34F8FBFF36F8F7047A8
:103D800000ED00E04378144AC2F89830D2F8A03031
:103D900023F00103C2F8A0304368C2F89C30017BD5
:103DA000C37A1B0643EA0173817A43EAC143417B2C
:103DB00043EA8143817B43EA4143C17B43EA0143B8
:103DC000417A43EA0123017A43EA410301780B4334
:103DD000C2F8A030704700BF00ED00E0F0B4876D7E
:103DE0000468664E664DAC4218BFB44242D01835E6
:103DF000AC423FD01835AC423CD01835AC4239D03B
:103E00001835AC4236D01835AC4233D01835AC42F8
:103E100030D005F55675AC422CD01835AC4229D0BF
:103E20001835AC4226D01835AC4223D01835AC42F8
:103E300020D01835AC421DD01835AC421AD01835F8
:103E4000AC4217D04F4DAC4214D01435AC4211D017
:103E50001435AC420ED01435AC420BD01435AC4204
:103E600008D01435AC4205D01435AC4202D014351C
:103E7000AC4207D1446E856E6560C46E14B1046FA8
:103E8000456F656004683D4E3D4DAC4218BFB4427D
:103E900052D01835AC424FD01835AC424CD0183502
:103EA000AC4249D01835AC4246D01835AC4243D06C
:103EB0001835AC4240D005F55675AC423CD01835AB
:103EC000AC4239D01835AC4236D01835AC4233D07C
:103ED0001835AC4230D01835AC422DD01835AC4234
:103EE0002AD01835AC4227D0264E274DAC4218BFF9
:103EF000B44211D0254DAC420ED01435AC420BD09B
:103F00001435AC4208D01435AC4205D01435AC425F
:103F100002D01435AC4224D1C46D04F01F05012435
:103F2000AC407C60046863608368402B20D00368E9
:103F300099600368DA6014E0C46D04F01F0C3F243C
:103F400004FA0CF4BC6005682C6824F480242C600E
:103F5000046863608368402B05D003689960036838
:103F6000DA60F0BC704703689A600368D960F8E7CC
:103F700003689A600368D960F3E700BF100002404D
:103F800028000240085402581C5402583054025869
:103F900003682749274A934218BF8B422FD0183213
:103FA00093422CD01832934229D01832934226D013
:103FB0001832934223D01832934220D018329342C1
:103FC0001DD002F55672934219D01832934216D082
:103FD0001832934213D01832934210D018329342C1
:103FE0000DD0183293420AD01832934207D01832BB
:103FF000934204D023F0FF038365806D704710B4B3
:10400000D9B210390C4AA2FB0142C2F302120B4C86
:10401000A25CC2655F2907D9094A1A400432826549
:10402000806D5DF8044B7047054A1A408265F7E7DA
:104030001000024028000240ABAAAAAAF8260108F4
:1040400000FCFFFF83699BB9836A012B0AD0022B16
:1040500002D00BB100207047C36A13F0807F2AD1D1
:1040600000207047C36AB3F1C07F26D0002070479C
:10407000B3F5005F0AD0836A022B26D9032B26D121
:10408000C36A13F0807F24D100207047836A032B1A
:1040900003D8DFE803F01404140A00207047C36A51
:1040A00013F0807F0DD100207047C36AB3F1C07F49
:1040B00009D000207047012070470120704701207F
:1040C0007047012070470120704701207047002091
:1040D000704701207047000003682249224A93423A
:1040E00018BF8B4228D01432934225D01432934209
:1040F00022D0143293421FD0143293421CD0143277
:10410000934219D01432934216D0DAB2103A1749BA
:10411000A1FB0212120916491944A8291FD9154BEF
:1041200013449B000366144B436602F01F020123F5
:1041300003FA02F282667047DBB2083B0F4AA2FB29
:1041400003230F4A02EB1312920002660D4A4266E5
:10415000C3F30413012202FA03F3836670470832A3
:10416000DDE700BF085402581C540258ABAAAAAAA3
:10417000F0FBFDBF0082001080080240CDCCCCCC0B
:10418000009600168058025801794A1E072A2CD83A
:1041900030B40368154D164CA34218BFAB4218D07B
:1041A0001434A34215D01434A34212D01434A342C1
:1041B0000FD01434A3420CD01434A34209D01434C9
:1041C000A34206D00B4B0B449B00C3660A4B03670C
:1041D00005E00A4B0B449B00C366094B03670123B0
:1041E00003FA02F2426730BC704770470854025825
:1041F0001C5402583F820010400902403F960016AE
:104200004059025870B50446FEF75EFD002C00F0E0
:10421000B681054623685349534A934218BF8B42DF
:104220000CBF0122002250D030318B424DD01831CA
:104230008B424AD018318B4247D018318B4244D040
:1042400018318B4241D018318B423ED001F5567166
:104250008B423AD018318B4237D018318B4234D050
:1042600018318B4231D018318B422ED018318B420D
:104270002BD018318B4228D018318B4225D03B49A6
:104280003B4A934218BF8B4200F03181394A934236
:1042900000F02D811432934200F0298114329342B0
:1042A00000F025811432934200F0218114329342B0
:1042B00000F01D811432934200F0198140236365A0
:1042C000032384F8353001204AE0022184F83510B8
:1042D000002184F834107ABB274A93422CD018323C
:1042E000934229D01832934226D01832934223D0D9
:1042F0001832934220D0183293421DD002F55672E4
:10430000934219D01832934216D01832934213D0E8
:104310001832934210D0183293420DD01832934283
:104320000AD01832934207D01832934204D01A6848
:1043300022F001021A6003E01A6822F001021A60FA
:1043400023681A6812F0010F18D0FEF7BDFC431B5A
:10435000052BF5D920236365032384F8353001202C
:1043600070BD00BF100002402800024008540258EF
:104370001C54025830540258400002401A688148C8
:104380001040A168E2680A4321690A4361690A434F
:10439000A1690A43E1690A43216A0A430243616A47
:1043A000042900F099807849086878490140B1F102
:1043B000005F11D36168A1F12905A1F13F00032835
:1043C00088BF052D06D9A1F14700012802D94F3930
:1043D000032901D842F480121A602668756925F015
:1043E0000705636A1D43042B08D1A36A1D43E36AD2
:1043F00023B12046FFF726FE002872D175612046C2
:10440000FFF7C6FDE36D03F01F023F239340836077
:1044100023685F495F4A934218BF8B4242D01832EB
:1044200093423FD0183293423CD01832934239D055
:104430001832934236D01832934233D01832934216
:1044400030D002F5567293422CD01832934229D0C4
:104450001832934226D01832934223D01832934216
:1044600020D0183293421DD0183293421AD01832FD
:10447000934217D0484A934214D01432934211D039
:10448000143293420ED0143293420BD01432934222
:1044900008D01432934205D01432934202D0143221
:1044A000934213D12046FFF717FEA368802B59D003
:1044B000236E22791A60636EA26E5A606368013BB4
:1044C000072B52D90023E3662367636700206065EA
:1044D000012384F8353043E7E16A206B01430A4346
:1044E00061E740236365012084F8350038E7022244
:1044F00084F83520002284F834201A6827491140B6
:10450000A268402A2CD0802A27D00022E06842EA04
:10451000D002206942EAD002606942EAD002A06972
:1045200042EAD002E06942EAD002206A42EA10126E
:104530000A431A6022681A4B13441A4AA2FB032347
:104540001B099B00E3652046FFF722FDE26D02F0A8
:104550001F0101228A4042605AE74FF48042D5E7AA
:104560001022D3E700236360A2E72046FFF70CFE8A
:10457000E36E00221A60236F626F5A60A6E7012083
:10458000EEE600BF3F8010FE0010005C0000FFFF61
:104590001000024028000240085402580F00FEFF9D
:1045A000F8ABFDA7CDCCCCCC002800F03E8170B597
:1045B000044690F83400012800F03981012084F885
:1045C000340094F83500C0B2012807D04FF40063DE
:1045D0006365002384F83430012070BD022084F824
:1045E0003500002060652068924E934DA84218BFA8
:1045F000B0422FD01835A8422CD01835A84229D067
:104600001835A84226D01835A84223D01835A8421C
:1046100020D01835A8421DD005F55675A84219D0EE
:104620001835A84216D01835A84213D01835A8421C
:1046300010D01835A8420DD01835A8420AD0183528
:10464000A84207D01835A84204D0056825F0010516
:10465000056003E0056825F0010505602046FFF7C9
:10466000BDFB23687349744A934218BF8B4238D00C
:104670001832934235D01832934232D018329342D6
:104680002FD0183293422CD01832934229D01832AE
:10469000934226D002F55672934222D018329342AA
:1046A0001FD0183293421CD01832934219D01832BE
:1046B000934216D01832934213D01832934210D03E
:1046C000183293420DD01A6822F00E0242F00A020C
:1046D0001A60236C93B12268136843F004031360DB
:1046E0000CE01A6822F01E0242F016021A60236CD7
:1046F00023B12268136843F00803136023684D490F
:104700004D4A934218BF8B4242D0183293423FD059
:10471000183293423CD01832934239D01832934227
:1047200036D01832934233D01832934230D002F54B
:10473000567293422CD01832934229D018329342A9
:1047400026D01832934223D01832934220D0183208
:1047500093421DD0183293421AD01832934217D088
:10476000364A934214D01432934211D014329342F9
:104770000ED0143293420BD01432934208D014322C
:10478000934205D01432934202D0143293420ED198
:10479000236E1A6812F4803F03D01A6842F48072C4
:1047A0001A60E36E1BB11A6842F480721A602368C3
:1047B0002049214A934218BF8B4230D0183293428D
:1047C0002DD0183293422AD01832934227D0183273
:1047D000934224D01832934221D0183293421ED0F3
:1047E00002F5567293421AD01832934217D01832FB
:1047F000934214D01832934211D0183293420ED003
:10480000183293420BD01832934208D01832934298
:1048100005D01A6842F001021A600020DDE61A682D
:1048200042F001021A600020D7E601207047022002
:10483000D3E600BF1000024028000240085402588E
:1048400070B50446FEF740FA002C00F09181054651
:1048500094F83530DBB2022B06D080236365002349
:1048600084F83430012070BD23688C498C4A93420F
:1048700018BF8B4230D0183293422DD01832934259
:104880002AD01832934227D01832934224D01832BB
:10489000934221D0183293421ED002F556729342B1
:1048A0001AD01832934217D01832934214D01832CB
:1048B000934211D0183293420ED0183293420BD04B
:1048C0001832934208D01832934205D01A6822F069
:1048D0000E021A60266809E01A6822F01E021A60A9
:1048E0002268536923F080035361266823686B496B
:1048F0006B4A934218BF8B4242D0183293423FD04A
:10490000183293423CD01832934239D01832934235
:1049100036D01832934233D01832934230D002F559
:10492000567293422CD01832934229D018329342B7
:1049300026D01832934223D01832934220D0183216
:1049400093421DD0183293421AD01832934217D096
:10495000544A934214D01432934211D014329342E9
:104960000ED0143293420BD01432934208D014323A
:10497000934205D01432934202D01432934204D1B0
:10498000226E136823F48073136023684349444AFA
:10499000934218BF8B422FD0183293422CD018323A
:1049A000934229D01832934226D01832934223D012
:1049B0001832934220D0183293421DD002F556721D
:1049C000934219D01832934216D01832934213D022
:1049D0001832934210D0183293420DD018329342BD
:1049E0000AD01832934207D01832934204D01A6882
:1049F00022F001021A6003E01A6822F001021A6034
:104A0000336813F0010F0ED0FEF75EF9431B052B40
:104A1000F6D920236365032384F83530002384F816
:104A2000343001201FE723681C491D4A934218BFF8
:104A30008B4239D01832934236D01832934233D059
:104A40001832934230D0183293422DD0183293420C
:104A50002AD01832934227D002F55672934223D0BF
:104A60001832934220D0183293421DD0183293420C
:104A70001AD01832934217D01832934214D01832F9
:104A8000934211D0183293420ED0A16DE36D03F022
:104A90001F02012393404B600DE000BF1000024055
:104AA0002800024008540258A16DE36D03F01F0274
:104AB0003F2393408B6023682E492F4A934218BFAF
:104AC0008B4242D0183293423FD0183293423CD0AE
:104AD0001832934239D01832934236D0183293426A
:104AE00033D01832934230D002F5567293422CD014
:104AF0001832934229D01832934226D0183293426A
:104B000023D01832934220D0183293421DD018324D
:104B100093421AD01832934217D0184A934214D0B5
:104B20001432934211D0143293420ED01432934275
:104B30000BD01432934208D01432934205D0143271
:104B4000934202D0143293420BD1636EA26E5A602C
:104B5000E36E33B11A6822F480721A60236F626FB9
:104B60005A60012384F83530002084F834007AE656
:104B7000012078E610000240280002400854025844
:104B8000002800F0298108B5024690F83530DBB2E4
:104B9000022B03D080234365012008BD03689048A1
:104BA00090498B4218BF83420CBF0121002166D07F
:104BB0003030834263D01830834260D01830834253
:104BC0005DD0183083425AD01830834257D0183005
:104BD000834254D000F55670834250D0183083423F
:104BE0004DD0183083424AD01830834247D0183015
:104BF000834244D01830834241D0183083423ED0A3
:104C0000183083423BD0196821F00E0119601368F7
:104C1000A0F5956073498B4218BF83426AD07249F0
:104C20008B4267D018318B4264D018318B4261D0EF
:104C300018318B425ED018318B425BD018318B42D9
:104C400058D001F556718B4254D018318B4251D057
:104C500018318B424ED018318B424BD018318B42D9
:104C600048D018318B4245D018318B4242D0183190
:104C70008B423FD0196821F0010119603EE0042009
:104C800082F8350081BB584A93422DD018329342A6
:104C90002AD01832934227D01832934224D01832A7
:104CA000934221D0183293421ED002F5567293429D
:104CB0001AD01832934217D01832934214D01832B7
:104CC000934211D0183293420ED0183293420BD037
:104CD0001832934208D01832934205D01A6822F055
:104CE00001021A60002058E71A6822F001021A60D7
:104CF000002052E7196821F0010119601368384853
:104D000038498B4218BF834242D018318B423FD082
:104D100018318B423CD018318B4239D018318B423C
:104D200036D018318B4233D018318B4230D001F558
:104D300056718B422CD018318B4229D018318B42BE
:104D400026D018318B4223D018318B4220D0183115
:104D50008B421DD018318B421AD018318B4217D09C
:104D600022498B4214D014318B4211D014318B4222
:104D70000ED014318B420BD014318B4208D0143139
:104D80008B4205D014318B4202D014318B4217D1A3
:104D9000116E0B6823F480730B60906DD36D03F07C
:104DA0001F0101238B404360536E916E5960D36E97
:104DB00033B1196821F480711960136F516F596014
:104DC000012382F83530002382F83430136D2BB183
:104DD000104698470020E0E6012070470020DCE6FE
:104DE00010000240280002404000024008540258CF
:104DF000F0B583B00446002301937D4B1D687D4BC5
:104E0000A3FB0535AD0A876D3E68D7F800C003687F
:104E100079497A48834218BF8B420CBF0120002099
:104E200061D0774A93425ED0183293425BD01832F9
:104E3000934258D01832934255D01832934252D0F0
:104E4000183293424FD002F5567293424BD018322B
:104E5000934248D01832934245D01832934242D000
:104E6000183293423FD0183293423CD018329342CA
:104E700039D01832934236D06249634A934218BF00
:104E80008B4212D0614A93420FD0143293420CD01D
:104E90001432934209D01432934206D01432934212
:104EA00003D01432934240F061821A68E16D01F040
:104EB0001F010420884010EA0C0F00F0A78212F0B6
:104EC000040F00F0A382786012F4004F00F05A82C1
:104ED00012F4803F40F05082A36C002B00F0468219
:104EE0002046984742E2E26D02F01F0108228A4004
:104EF000324241D070BB424A93422BD01832934287
:104F000028D01832934225D01832934222D018323A
:104F100093421FD0183293421CD002F5567293422E
:104F200018D01832934215D01832934212D018324A
:104F300093420FD0183293420CD01832934209D0CA
:104F40001832934206D01832934203D01A68C2F343
:104F5000C00202E01A68C2F380026AB11A6822F045
:104F600004021A60E36D03F01F0208239340BB6044
:104F7000636D43F001036365E26D02F01F0226FAE0
:104F800002F313F0010F47D023681B481B498B42E3
:104F900018BF83423CD018318B4239D018318B4234
:104FA00036D018318B4233D018318B4230D0183183
:104FB0008B422DD018318B422AD001F556718B428D
:104FC00026D018318B4223D018318B4220D0183193
:104FD0008B421DD018318B421AD018318B4217D01A
:104FE00018318B4214D018318B4211D01B6813E05A
:104FF00000000024B5814E1B100002402800024032
:1050000040000240085402581C54025830540258C0
:105010005B6913F0800F3BD1E36D03F01F030422A3
:1050200002FA03F3334240D02268964896498A42F6
:1050300018BF824235D018318A4232D018318A42A4
:105040002FD018318A422CD018318A4229D01831F9
:105050008A4226D018318A4223D001F556718A42FD
:105060001FD018318A421CD018318A4219D0183109
:105070008A4216D018318A4213D018318A4210D091
:1050800018318A420DD018318A420AD013680CE0D8
:10509000012303FA02F2BA60636D43F00203636511
:1050A000BAE7126812F0020F3DD1E36D03F01F035F
:1050B000102202FA03F333425FD02268714872492A
:1050C0008A4218BF824234D018318A4231D0183116
:1050D0008A422ED018318A422BD018318A4228D0E9
:1050E00018318A4225D018318A4222D001F55671F2
:1050F0008A421ED018318A421BD018318A4218D0F9
:1051000018318A4215D018318A4212D018318A4299
:105110000FD018318A420CD018318A4209D0126857
:10512000C2F3800208E0BB60636D43F00403636573
:10513000BBE71268C2F3C002FAB1BB6023681A6809
:1051400012F4802F0DD01B6813F4002F04D1236CB0
:105150009BB12046984710E0A36C73B12046984756
:105160000BE01A6812F4807F03D11A6822F008025B
:105170001A60236C0BB120469847E36D03F01F03C0
:10518000202202FA03F3334200F0928022683D4865
:105190003D498A4218BF82422ED018318A422BD014
:1051A00018318A4228D018318A4225D018318A42D3
:1051B00022D018318A421FD018318A421CD001F502
:1051C00056718A4218D018318A4215D018318A4255
:1051D00012D018318A420FD018318A420CD01831BF
:1051E0008A4209D018318A4206D018318A4203D047
:1051F0001268C2F3400202E01268C2F30012002AF1
:1052000056D0BB6094F83530DBB2042B0ED0236847
:105210001A6812F4802F39D01B6813F4002F2CD198
:10522000636C002B44D02046984741E02268136805
:1052300023F0160313602268536923F0800353613F
:10524000236CB3B12268136823F008031360E36D85
:1052500003F01F023F239340BB60012384F83530E5
:10526000002384F83430236D002B7FD020469847EC
:105270007CE0A36C002BE5D1E9E7E36BC3B12046EA
:10528000984715E010000240280002401A6812F406
:10529000807F09D11A6822F010021A60012384F875
:1052A0003530002384F83430E36B0BB12046984747
:1052B000636D002B5AD0636D13F0010F52D004239D
:1052C00084F8353023689649964A934218BF8B423A
:1052D0002FD0183293422CD01832934229D0183252
:1052E000934226D01832934223D01832934220D0D2
:1052F000183293421DD002F55672934219D01832DB
:10530000934216D01832934213D01832934210D0E1
:10531000183293420DD0183293420AD01832934279
:1053200007D01832934204D01A6822F001021A60A2
:1053300003E01A6822F001021A60019B0133019315
:10534000AB4204D823681B6813F0010FF5D1236822
:105350001B6813F0010F0BD0032384F835300023B2
:1053600084F83430E36C0BB12046984703B0F0BDAD
:10537000012384F83530F2E7236C002BF6D0204669
:105380009847F3E712F0200F3AD123686449654A41
:10539000934218BF8B422FD0183293422CD0183230
:1053A000934229D01832934226D01832934223D008
:1053B0001832934220D0183293421DD002F5567213
:1053C000934219D01832934216D01832934213D018
:1053D0001832934210D0183293420DD018329342B3
:1053E0000AD01832934207D01832934204D01A6878
:1053F00022F004021A6003E01A6822F008021A6020
:10540000236C002BB2D020469847AFE7022088409B
:1054100010EA0C0F60D012F0020F5DD0786012F429
:10542000004F0ED012F4803F05D1636C002B9DD04D
:10543000204698479AE7E36B002B97D02046984781
:1054400094E712F0200F40D123683549354A934242
:1054500018BF8B422FD0183293422CD0183293426F
:1054600029D01832934226D01832934223D01832D2
:10547000934220D0183293421DD002F556729342C7
:1054800019D01832934216D01832934213D01832E2
:10549000934210D0183293420DD0183293420AD062
:1054A0001832934207D01832934204D01A6822F07F
:1054B0000A021A6003E01A6822F014021A6001233B
:1054C00084F83530002384F83430E36B002B3FF44C
:1054D0004DAF2046984749E7082000FA01F111EA4C
:1054E0000C0F3FF443AF12F0080F3FF43FAF1A68C0
:1054F00022F00E021A60E36D03F01F03012202FA8C
:1055000003F37B60626584F83520002384F834302F
:10551000E36C002B3FF42AAF2046984726E700BFF4
:105520001000024028000240F0B583B000236BE079
:1055300085685E000324B44025EA0405CC68B440C5
:105540002C438460446824EA0C0C4C68C4F30014B7
:105550009C4044EA0C04446068E0DD08083550F8DB
:10556000256003F007044FEA840C0F2404FA0CF4BE
:1055700026EA040E0C6904FA0CF444EA0E0440F81E
:1055800025406BE0092400E0002404FA0EF42C43CB
:105590000CF1020C694D45F82C404FF0B0442568E1
:1055A000D44325EA02064F6817F4801F01D042EA6F
:1055B00005064FF0B0452E606D6804EA05064F6899
:1055C00017F4001F01D042EA05064FF0B0456E60A7
:1055D000D5F8845004EA05064F6817F4003F01D05F
:1055E00042EA05064FF0B045C5F88460D5F8805012
:1055F0002C404E6816F4803F01D042EA05044FF07B
:10560000B042C2F8804001330A6832FA03F400F075
:1056100092804FF0010C0CFA03FC1CEA0202F2D05B
:105620004C6804F00304013C012C81D94C6804F05F
:105630000304032C0CD0C4685D004FF0030C0CFA7B
:1056400005FC24EA0C0C8C68AC4044EA0C04C460F1
:105650004C6804F00304022C3FF47FAF04684FEA67
:10566000430E4FF0030C0CFA0EFC24EA0C0C4C68B1
:1056700004F0030404FA0EF444EA0C0404604C68D9
:1056800014F4403FBFD02E4CD4F8F45045F002053E
:10569000C4F8F450D4F8F44004F002040194019CDE
:1056A0004FEA930C0CF10205244C54F8255003F0FA
:1056B00003044FEA840E0F2404FA0EF425EA0405CD
:1056C000204CA0423FF460AF04F58064A04222D099
:1056D00004F58064A04220D004F58064A0421ED06E
:1056E00004F58064A0421CD004F58064A0421AD066
:1056F00004F58064A04218D004F58064A04216D05E
:1057000004F58064A04214D004F58064A0423FF404
:1057100039AF0A2439E7012437E7022435E70324A7
:1057200033E7042431E705242FE706242DE7072477
:105730002BE7082429E703B0F0BD00BF00040058A0
:1057400000440258000002580AB181617047090400
:1057500081617047134BDB6813F0040F07D1114BC5
:10576000DB6803F0070383421AD00120704710B5AD
:105770000C4AD36823F007031843D060FDF7A4FA5E
:105780000446084B5B6813F4005F07D1FDF79CFAF1
:10579000001BB0F57A7FF4D9012000E0002010BD95
:1057A0000020704700480258002800F0398338B5BF
:1057B0000446036813F0010F25D0944A136903F0DF
:1057C0003803926A102B15D0182B0FD06368B3F5ED
:1057D000803F3FD0002B53D18C4B1A6822F480328B
:1057E0001A601A6822F480221A6038E002F003027C
:1057F000022AEBD1854B1B6813F4003F03D063688A
:10580000002B00F00F83236813F0020F00F0A1803B
:105810007E4A1369926A13F038035AD0182B55D078
:10582000E368002B00F0DE8078490A6822F0190254
:1058300013430B60FDF748FA0546744B1B6813F0E1
:10584000040F40F0AD80FDF73FFA401B0228F4D969
:105850000320EEE26D4A136843F4803313606368FB
:105860002BB3FDF731FA0546684B1B6813F4003F74
:10587000C9D1FDF729FA401B6428F5D90320D8E2E5
:10588000B3F5A02F09D0614B1A6822F480321A6058
:105890001A6822F480221A60E1E75C4B1A6842F42D
:1058A00080221A601A6842F480321A60D7E7FDF746
:1058B0000BFA0546554B1B6813F4003FA3D0FDF7C8
:1058C00003FA401B6428F5D90320B2E212F0030F5B
:1058D000A6D14E4B1B6813F0040F03D0E368002BD6
:1058E00000F0A282494A136823F01903E1680B43D0
:1058F0001360FDF7E9F90546444B1B6813F0040FEC
:1059000006D1FDF7E1F9401B0228F5D9032090E20A
:10591000FDF7F4F941F20303984212D82269402AB4
:1059200007D03A494B6823F47C3343EA02334B6097
:105930000FE0364A536823F47C3343F4003353605A
:1059400007E0324A536823F0FE43216943EA0163CA
:105950005360236813F0100F00F088802B4A1369FE
:1059600003F03803926A082B56D0182B50D0E36905
:10597000002B00F0B880254A136843F080031360C1
:10598000FDF7A2F90546214B1B6813F4807F40F018
:105990008880FDF799F9401B0228F4D9032048E2DA
:1059A000FDF7ACF941F20303984212D82269402A6C
:1059B00007D016494B6823F47C3343EA02334B602B
:1059C000C7E7124A536823F47C3343F4003353602F
:1059D000BFE70E4A536823F0FE43216943EA01639F
:1059E0005360B6E7094A136823F001031360FDF71B
:1059F0006BF90546054B1B6813F0040FA9D0FDF7A2
:105A000063F9401B0228F5D9032012E20044025832
:105A100002F00302012AAAD1A14B1B6813F4807F74
:105A200003D0E369802B40F00182FDF767F941F272
:105A30000303984212D8226A202A07D098494B685B
:105A400023F0F84343EA82634B600FE0944A5368C3
:105A500023F0F84343F08043536007E0904AD36853
:105A600023F07C53216A43EA0163D360236813F077
:105A7000080F60D06369002B49D0894A536F43F007
:105A800001035367FDF720F90546854B5B6F13F063
:105A9000020F50D1FDF718F9401B0228F5D9032059
:105AA000C7E1FDF72BF941F20303984212D8226AAD
:105AB000202A07D07A494B6823F0F84343EA8263EF
:105AC0004B60D3E7764A536823F0F84343F08043B2
:105AD0005360CBE7724AD36823F07C53216A43EAD0
:105AE0000163D360C2E76E4A136823F0800313603A
:105AF000FDF7EAF805466A4B1B6813F4807FB5D0C2
